:020000040800F2
:1000000098350020A5380008CF85000891380008F1
:10001000913800089138000891380008000000006D
:100020000000000000000000000000006D39000822
:10003000913800080000000015390008E545000867
:10004000913A0008913A0008913A0008913A000864
:10005000913A0008913A0008913A0008913A000854
:10006000913A0008913A0008913A0008913A000844
:10007000913A0008913A0008913A0008913A000834
:10008000913A0008913A0008913A0008913A000824
:10009000913A0008913A0008913A0008913A000814
:1000A000913A0008913A0008913A0008913A000804
:1000B000913A0008913A0008913A0008913A0008F4
:1000C000913A0008913A0008913A0008913A0008E4
:1000D000913A0008913A0008913A0008913A0008D4
:0C00E000913A0008913A0008913A00089B
:1000F00080F0004002E000BF81F0004142001FBFDD
:100100005FEA410392EA030F7FEA226C7FEA236CE5
:100110006AD04FEA1262D2EB1363C1BFD2184140DA
:1001200048404140B8BF5B42192B88BF704710F070
:10013000004F40F4000020F07F4018BF404211F013
:10014000004F41F4000121F07F4118BF494292EA7B
:10015000030F3FD0A2F1010241FA03FC10EB0C00A7
:10016000C3F1200301FA03F100F0004302D5494234
:1001700060EB4000B0F5000F13D3B0F1807F06D3E1
:1001800040084FEA310102F10102FE2A51D2B1F1D9
:10019000004F40EBC25008BF20F0010040EA0300CE
:1001A0007047490040EB0000013A28BFB0F5000F4E
:1001B000EDD2B0FA80FCACF1080CB2EB0C0200FA04
:1001C0000CF0AABF00EBC25052421843BCBFD04053
:1001D0001843704792F0000F81F4000106BF80F4CD
:1001E00000000132013BB5E74FEA41037FEA226C90
:1001F00018BF7FEA236C21D092EA030F04D092F05B
:10020000000F08BF0846704790EA010F1CBF00208E
:10021000704712F07F4F04D1400028BF40F00040EB
:10022000704712F100723CBF00F50000704700F00B
:10023000004343F0FE4040F4000070477FEA226232
:1002400016BF08467FEA23630146420206BF5FEA03
:10025000412390EA010F40F4800070474FF0000303
:1002600004E000BF10F0004348BF40425FEA000CCA
:1002700008BF704743F0964301464FF000001CE072
:1002800050EA010208BF70474FF000030AE000BFC8
:1002900050EA010208BF704711F0004302D5404206
:1002A00061EB41015FEA010C02BF84460146002078
:1002B00043F0B64308BFA3F18053A3F50003BCFA93
:1002C0008CF2083AA3EBC25310DB01FA02FC634440
:1002D00000FA02FCC2F12002BCF1004F20FA02F247
:1002E00043EB020008BF20F00100704702F120023A
:1002F00001FA02FCC2F1200250EA4C0021FA02F29B
:1003000043EB020008BF20EADC7070474FF0FF3C6F
:1003100006E000BF4FF0010C02E000BF4FF0010CFF
:100320004DF804CD4FEA40024FEA41037FEA226CC8
:1003300018BF7FEA236C11D001B052EA530C18BFEA
:1003400090EA010F58BFB2EB030088BFC81738BF4F
:100350006FEAE17018BF40F0010070477FEA226C3D
:1003600002D15FEA402C05D17FEA236CE4D15FEA39
:10037000412CE1D05DF8040B704700BF844608466D
:100380006146FFE70FB5FFF7C9FF002848BF10F12E
:10039000000F0FBD4DF808EDFFF7F4FF0CBF012073
:1003A00000205DF808FB00BF4DF808EDFFF7EAFFFD
:1003B00034BF012000205DF808FB00BF4DF808EDB8
:1003C000FFF7E0FF94BF012000205DF808FB00BFAD
:1003D0004DF808EDFFF7D2FF94BF012000205DF833
:1003E00008FB00BF4DF808EDFFF7C8FF34BF012040
:1003F00000205DF808FB00BF4FEA4002B2F1FE4F5B
:100400000FD34FF09E03B3EB12620DD94FEA0023D6
:1004100043F0004310F0004F23FA02F018BF4042AF
:1004200070474FF00000704712F1610F01D1420296
:1004300005D110F0004008BF6FF0004070474FF04A
:10044000000070477BB972B90029BEBF00204FF091
:10045000004106E008BF00281CBF6FF000414FF0CC
:10046000FF3000F057B8ADF1080C6DE904CE00295B
:1004700009DB002B1ADB00F069F8DDF804E0DDE9A8
:10048000022304B07047404261EB4101002B1BDBAB
:1004900000F05CF8DDF804E0DDE9022304B040423E
:1004A00061EB4101524263EB43037047524263EBFD
:1004B000430300F04BF8DDF804E0DDE9022304B06B
:1004C000404261EB41017047524263EB430300F04D
:1004D0003DF8DDF804E0DDE9022304B0524263EBAD
:1004E0004303704753B94AB9002908BF00281CBF0D
:1004F0004FF0FF314FF0FF3000F00CB8ADF1080CB9
:100500006DE904CE00F022F8DDF804E0DDE9022315
:1005100004B07047704700BF10F8012B11F8013B81
:10052000012A28BF9A42F7D0D01A7047034611F823
:10053000012B03F8012B002AF9D17047034613F869
:10054000012B002AFBD1181A013870472DE9F0471A
:1005500086468C460846154674461946089E002B6A
:1005600040F0C2808542B2FA82F245D94AB1C2F166
:10057000200300FA02FC2EFA03F3954043EA0C0C28
:1005800094404FEA154EBCFBFEF8A8B20EFB18CC07
:1005900008FB00F9230C43EA0C43994528D9EB18D2
:1005A00008F1FF3704D2994502D9A8F102072B447C
:1005B000A3EB0903B3FBFEFC0EFB1C330CFB00F0AA
:1005C000A4B244EA0344A04214D92C190CF1FF331D
:1005D00004D2A04202D9ACF102032C44241A43EA0B
:1005E00007401EB10023D44034607360BDE8F0873B
:1005F0004746DDE76346F1E792BB0121431B4FEA23
:10060000154EB3FBFEFCAFB20EFB1C330CFB07F820
:10061000200C40EA0343984562D9EB180CF1FF30F7
:1006200004D2984502D9ACF102002B44A3EB080395
:10063000B3FBFEFC0EFB1C330CFB07F7A4B244EA31
:100640000344A7424ED92C190CF1FF3304D2A74220
:1006500002D9ACF102032C44E41B43EA0040C0E79A
:10066000C2F12003954020FA03F12EFA03F34FEA7A
:10067000154EB1FBFEFC90400343AFB20EFB1C10C5
:100680000CFB07F8190C41EA0041884504FA02F412
:1006900022D969180CF1FF3004D2884502D9ACF197
:1006A00002002944A1EB0801B1FBFEFC0EFB1C116A
:1006B0000CFB07F79BB243EA01439F420ED9EB18AC
:1006C0000CF1FF3104D29F4202D9ACF102012B445C
:1006D000DB1B41EA004192E76046E3E76146F7E74A
:1006E0006046A3E76346B7E7834206D916B90021FF
:1006F00008467BE7C6E900E0F9E7B3FA83F78FB96C
:10070000834201D3724508D8BEEB020460EB0303B9
:1007100001209C461EB9002168E73846FAE7C6E981
:10072000004CF8E7C7F1200CBB4022FA0CF41C4344
:100730004FEA144920FA0CF3B3FBF9F8B8402EFA4B
:100740000CF101430EFA07F509FB18301FFA84FE7D
:1007500008FB0EFA0B0C43EA00439A4502FA07F233
:1007600040D9E31808F1FF3004D29A4502D9A8F124
:1007700002002344A3EB0A03B3FBF9F809FB183387
:1007800008FB0EFE89B241EA03418E452CD961185F
:1007900008F1FF3304D28E4502D9A8F102032144A7
:1007A00043EA0040A0FB0298A1EB0E014145CE4672
:1007B000434602D306D14D4504D2B9EB020E68EB95
:1007C00004030138002EA6D0B5EB0E0261EB030145
:1007D00001FA0CFC22FA07F34CEA0303F940C6E9DC
:1007E000003198E74046C5E74346D9E700000000DE
:1007F0002DE9F04704468846174688B008F0B9FE50
:100800000A220023FFF76EFEB8F1010F06460D46DF
:1008100007D102460B462046274906F0B5FF0020C7
:1008200011E07F6825483946FFF776FE70B13946FA
:100830002348FFF771FE48B120463A46214906F0A9
:10084000BFFF6FF0040008B0BDE8F087304618A382
:10085000D3E900232946FFF7F5FD06460D4610466D
:100860001946194A0023FFF7EDFD80460F46104652
:1008700019464EF660220023FFF7E4FD82468946C2
:10088000104619464FF47A720023FFF7DBFDCDE9DD
:1008900002A9CDE90623CDE9040132462B462046C4
:1008A000CDE90087094906F06FFFB8E7AFF3008094
:1008B000005C2605000000004DAE00085EAE00089A
:1008C00061AE00086AAE000880EE360082AE000815
:1008D000012208B5034B04491A7006F055FF0020A9
:1008E00008BD00BFAC000020F2AC0008012938B5FB
:1008F000054605D80C4906F047FF4FF0FF3038BDDC
:1009000000240A4B50681C7008F00AFFFFF7AAFC8D
:10091000074B1860FFF770FD06490246284606F0AF
:1009200033FF2046EBE700BF0BAD0008AC00002012
:100930006006002028AD00082DE9F04101244FF0A9
:100940007C560027DFF84080104B1B7863B1104DB8
:100950003146286874B1FFF7D1FB41462860FFF7A4
:1009600037FDB0FA80F4640900214FF47A7008F082
:100970007CFDE9E7FFF7C0FB39462860FFF71EFD65
:10098000041E18BF0124EFE700004842AC0000201D
:10099000600600202DE9F0411A4C204608F00EFCBC
:1009A00000282DD02269A1681368204643F4005323
:1009B00013600B68144A0D219847144E144FDFF84A
:1009C0005480356839462846FFF70CFDA8B14146EA
:1009D0002846FFF7E9FC80B123691B689B04A368E4
:1009E00054BFDB681B694FF400510648984700214B
:1009F0004FF4FA6008F039FDE3E7A3685B69F2E7BA
:100A0000BDE8F081589D0008010006006006002046
:100A10000000A0410000344230B50446EFF31185D8
:100A2000102383F31288BFF36F8F044B0FCB84E83E
:100A30000F0085F31188BFF36F8F30BD7002002067
:100A400001281FB50C4605D004281DD06FF01500F5
:100A500004B010BD08F08DFD42F210720023FFF7C4
:100A600041FD104BC4E900015A43A2606846FFF7FC
:100A7000D3FF6946204606F018FC18B90A4B0FCB85
:100A800084E80F000020E3E708F073FD42F21072E3
:100A90000023FFF727FD034BC4E900015A43A2607E
:100AA000F0E700BFA086010028A2000801287FB55A
:100AB0000D462ED18A68184B9A422AD808F059FD63
:100AC00042F210720023FFF70DFD6C46134B4042BB
:100AD00002FB03F361EB4101CDE9000120460293E3
:100AE00000F0E2F82946204606F0DFFBEFF311861E
:100AF000102383F31288BFF36F8F94E80F00084D23
:100B000085E80F0086F31188BFF36F8F002004B0D3
:100B100070BD6FF01500FAE7FFC99A3B6079FEFFE0
:100B200070020020014B1B68184700BF0000002026
:100B3000014B1860704700BF0000002030B585B041
:100B400004460D4610220021684608F094FF022357
:100B50008DF80230044B2A4621466846019305F081
:100B6000BFF905B030BD00BF250B000880B50546B4
:100B70000E461746984604F0E5FB034609F04AF88E
:100B80000446DFF81890424649F8003039463046AE
:100B9000A84754F8090002F0A7FE00BF08000000B3
:100BA0002DE9F84340F26C7344690569E11701359A
:100BB000E41841F10001022D8CBF00230123E41A47
:100BC000C76861F100010029064607F1FF374EDAD8
:100BD0006FF4C7704FF4C8720023201861F1000150
:100BE000FFF730FC244B4FF03C0E03FB0044D6E9EA
:100BF00000834FEAE37C99466346022D02468CBF90
:100C00006FF002000920B6680544C6FB0E93A9FBED
:100C10000EC60EFB036640F26D1E9920A3080EFB64
:100C200004333B44642745430520B4FBF7F4023505
:100C3000B5FBF0F51B1B114C1CEB080CA2FB0420B0
:100C400004FB01012B4446EBE87698180C4A41F16D
:100C5000000380180B4A63F10003A0FB020102FBB2
:100C6000031110EB0C0041EB0601BDE8F8834FF4D3
:100C7000C87200232046B3E770FEFFFFB13A0200BE
:100C80009405F5FF8051010010B5FFF789FF00249E
:100C9000024608F0BFFF0B46024944501046194671
:100CA00010BD00BF0C00000070B51F4B82689A4257
:100CB00015DDD0E90016013392FBF3F3012976F13B
:100CC00000054FEAE3741CDAC91844EB0604C0E9D6
:100CD0000014164901FB03238360012070BD002A24
:100CE000FBDAD0E90041124E9B1A0029B3FBF6F360
:100CF00010DA01F100459C4275F100050ADA002086
:100D0000ECE7CD439D426FF00045A5EB0605A541FC
:100D1000DADAF4E706FB0322E41A61F10001C0E924
:100D200000418260D9E700BFFFC99A3B003665C425
:100D300000CA9A3B08B500F0B9F80122002309491E
:100D4000C0E9002241610849C0E902330A6007494D
:100D500003610A60064A1360064A1360064A13607C
:100D600008BD00BF3DB00008200000201C0000208E
:100D70006C06002068060020640600202DE9F04182
:100D800007460E46154600F091F8C36804461BB9A5
:100D900043691A78002A41D10023E3606368BB42AB
:100DA00056F8232008DB324B6361204600F062F8DE
:100DB0004FF0FF30BDE8F081511C616192F8008076
:100DC000B8F12D0FEFD1911C616151782D29A160EF
:100DD00004D192786AB901336360E4E749B9244BDE
:100DE00041462846636108F0AFFC0028DDD0C4F816
:100DF0000880D4F808802846414608F0A5FCB8F1E0
:100E00003A0F636900D070B91B7813B96368013376
:100E10006360204600F02EF83F20CBE75A1C426169
:100E20001B788360E5E742783A2A0BD000222261E2
:100E30001B7813B9636801336360204600F01AF829
:100E4000A068B7E718786268094928B90132974263
:100E5000626004DD56F82230C4E90431EAE76161DA
:100E60002D7820463A2DD5D100F004F82846A1E788
:100E70003DB000080168084A084B11604168084A03
:100E800011608168074A1160074AC16811600269F0
:100E90001A6002F051BE00BF20000020640600204E
:100EA0001C0000206C0600206806002000487047E7
:100EB00004000020074B00205A6822F001025A600B
:100EC0005A6822F002025A605A6822F004025A60FC
:100ED000704700BF002004E0044A136843F0100389
:100EE0001360034B034A1A60704700BF00200240A2
:100EF0009C00002000127A0010B5044603F02AFC82
:100F000003490246204606F03FFC002010BD00BF0A
:100F1000F8AD000837B513460022054601920A21B4
:100F2000586801AA01F062FD019C4CB90A2120EA2F
:100F3000E07080FB010108F098FA204603B030BD54
:100F400022462846024906F03BFC019CF5E700BF1B
:100F500024AE000808B5034A034906F015FC00203A
:100F600008BD00BF14AF00081BAF0008002307B581
:100F70000090694604488DF8043004F033FB9DF876
:100F8000040003B05DF804FB6774000810B5044664
:100F900003F0C2FB07490246204606F0F5FB204657
:100FA000054906F0F1FB2146044804F035FB00201A
:100FB00010BD00BF5DAF00087CAF0008C10F000886
:100FC00070B58EB004460D46D0F8A86008F086F9DA
:100FD000034608F01FFE214A21491058214A002BE0
:100FE00018BF1A460092204A2346844218BF0A4678
:100FF00028461E4906F0C8FBD4E90A23CDE90023A0
:10100000284694F90E30227B194906F0BDFB06A94B
:101010002022204603F0FEFD236F02461549284694
:1010200006F0B2FB204605A908F066F9024628B191
:101030002846114906F0A8FB0EB070BD6422059B3E
:101040002846F11A4A43B2FBF6F20091CDE901625B
:101050000A49324606F098FBEEE700BF08000000A0
:10106000F9B9000888AF000886AF00088BAF000808
:1010700097AF0008C3AF0008DAAF000807B0000858
:10108000F0B50025044691B0294608AF1C2209A8F6
:1010900008F0F1FC134E1A222021384608F0EBFC30
:1010A0002146114804F0B8FA07AA4FF4006130460F
:1010B00008F016F96423079A2046C2F500614B43F5
:1010C000DB0A05934FF400630097CDE90313CDE9E4
:1010D000013206492B46324606F056FB284611B02F
:1010E000F0BD00BF981C0020F110000858B00008A7
:1010F00070B504460D46D0F8A86088B007A908F07E
:10110000FBF8024628B128460E4906F03DFB08B020
:1011100070BD204608F0E2F86422079B0096F11AA1
:101120004A43B2FBF6F2CDE90131074BCDE9036248
:10113000002818BF034622462846044906F024FB2F
:10114000E5E700BFDAAF000888AF0008A1B00008EB
:1011500038B51346054610220021586804F03AFDC0
:101160000446FFF703FF38B9224628460D4906F02A
:1011700027FB6FF0150038BD08F04CFD0A4B1B58DB
:101180009C4204D12846094906F01AFBF1E72046A3
:1011900003F006FF28462246054906F0F5FA00202E
:1011A000E9E700BF05B100080800000020B1000811
:1011B00048B1000838B5134605461022002158688A
:1011C00004F008FD0446FFF7D1FE38B92246284650
:1011D0000D4906F0F5FA6FF0150038BD08F01AFD5C
:1011E0000A4B1B589C4204D12846094906F0E8FAEC
:1011F000F1E7204603F080FF28462246054906F025
:10120000C3FA0020E9E700BF05B1000808000000AC
:1012100087B10008ADB1000838B513460546102265
:101220000021586804F0D6FC0446FFF79FFE38B949
:10123000224628460D4906F0C3FA6FF0150038BD66
:1012400008F0E8FC0A4B1B589C4204D12846094987
:1012500006F0B6FAF1E7204602F046FB28462246A1
:10126000054906F091FA0020E9E700BF05B1000842
:1012700008000000E8B100080DB2000810B50C46E7
:10128000002106F05FFD00B100680023024A2060E3
:10129000C4E90123E36010BD2DB3000810B50C466E
:1012A000002106F053FD00B100680023024A2060CF
:1012B000C4E90123E36010BD2DB3000870B50646F4
:1012C0005068154606F046FD044640B930466A6847
:1012D0000F4906F075FA6FF01204204670BD07F052
:1012E0006DFF30B16A680B49304606F03FFA0024C2
:1012F000F3E7204607F059FF044630B103466A6819
:101300003046054906F05CFAE7E76A680349EBE70F
:1013100045B200085AB200087CB20008A9B2000821
:101320002DE9F04F8FB0044601A80F46904603F018
:1013300071FA019B082103EB401B2B4A204606F063
:1013400008FA019D5D4503D300200FB0BDE8F08F82
:101350002E680EB1337833B92B463021234A02A8C8
:1013600004F096FB02AE022F07D13046D8F80410E5
:1013700008F025FA08B92035E4E73346082120466D
:101380001B4A06F0E6F9284607F018FF194A1A4BDF
:101390000821002808BF13462046184A06F0D9F94C
:1013A000EB69002BE7D01E68002EE4D03368002BD9
:1013B000E1D008212046124A06F0CBF9B2464FF0A0
:1013C000000933680F4A4B4505D8082120460E4ACC
:1013D00006F0BFF9CFE7082120465AF8043F06F08F
:1013E000B8F909F10109ECE7DCB20008E6B200083F
:1013F000EBB20008D3B20008CDB2000853B2000827
:10140000F0B20008ECB200083CB000081FB50C6850
:10141000D1E9043203944C68013302948C6802F2DF
:101420006C720194C9680091024906F0ADF904B0EC
:1014300010BD00BF77B30008F7B5137806463A2B06
:101440000F46154614D1541C23783A2B28D1013469
:101450000A22204601A904F047FB019A0346A24252
:10146000386017D01078A8B93C2B15D915490EE073
:101470000A22284601A904F037FB019CB860AC425F
:1014800008D023783A2B05D1172807D90E493046C2
:1014900006F096F96FF0150003B0F0BD0134D3E704
:1014A0000A22204601A904F01FFB019B7860A34299
:1014B000F0D01A783A2AEDD13B2801D90349E6E762
:1014C0005C1CC5E7B6B3000898B30008A6B30008D3
:1014D0002DE9F0410D4690B002A9044601201746BF
:1014E000FFF7AEFA07A902A804F02CFA032D55D194
:1014F0007D680A22284601A904F0F6FA019E80467A
:10150000B54215D032782D2A12D101360A22304642
:1015100001A904F0E9FA019B9E4209D01A782D2A0C
:1015200006D1451E0B2D0CD92849204606F048F956
:10153000204606F07AF96FF01505284610B0BDE890
:10154000F0815E1C0A22304601A904F0CDFA019B0D
:101550009E42EDD01B78002BEAD1431E1E2B01D9F1
:101560001B49E2E7A8F26C73CDE90B53BA680A9005
:10157000204607A9FFF760FF0028D9D107A8FFF789
:1015800083FBB1F1FF3F08BFB0F1FF3FCDE902019E
:1015900008D120460F4906F013F9CCE7022DC7D138
:1015A0007A68E5E700230493012002A9FFF77EFA99
:1015B000054628B102460849204606F001F9BAE777
:1015C000204607A9FFF722FFB7E700BFC6B3000810
:1015D000D5B30008E2B300080BB400082DE9F341CD
:1015E00014468846074610220021606804F0F2FA8B
:1015F000B8F1020F064607D8202308213846274AAB
:1016000006F0A7F8336816E00A220021A06804F06B
:10161000E1FAC5B22B4608213846204A06F099F86F
:10162000B8F1030F1ED1102D0FD0202DEAD0082DB8
:101630000ED13378DBB200220821CDE900323846E2
:10164000174A06F086F8002009E033889BB2F2E7DB
:1016500038460821134A06F07CF86FF0150002B0F6
:10166000BDE8F0811022E068002104F019FB0E4A69
:10167000CDE9000104460821384606F06AF8102D2D
:1016800006D0202D07D0082DE2D1E4B23470DAE77D
:10169000A4B23480D7E73460D5E700BF50B4000867
:1016A0007BB4000865B400088EB4000800232DE95F
:1016B000F04F91464FF0FF35012287B00193504B18
:1016C000074688461A602026FFF734FB2C46DFF8D1
:1016D00034A1494652464046FFF750FB411C06D113
:1016E0006A1C41D14849384606F06AF817E0732869
:1016F0001AD0772828D0612811D1DFF810B1102135
:10170000DBF8000001AA01F071F9019B0546002BEE
:10171000DFD0DBF800203E49384606F051F86FF084
:10172000150007B0BDE8F08FDFF8E0B00021DBF86E
:10173000000001AA01F05AF9019B0446002BC8D011
:10174000DBF800203349E7E7DFF8C0B00021DBF821
:10175000000001AA01F04AF9019B0646002BB8D00F
:10176000DBF800202C49D7E7631C01D12B49BAE7ED
:101770005FFA86F8C6F3C406002C3FD002AB2946B8
:101780001A46A6EB050C0CE0B8F1100F1DD0B8F10D
:10179000200F20D0B8F1080F2AD1087818703144F2
:1017A0003344A64203D80CEB01001028ECD9102CCE
:1017B000A14628BF4FF0100929464B46384600F095
:1017C000FDFF1035A4EB0904D6E7088880B2187035
:1017D000000A5870E3E708684FEA102E187083F883
:1017E00001E04FEA104E000E83F802E0D870D6E711
:1017F000082138460A4A05F0ACFF90E7204690E7FA
:101800001C000020DEB40008E5B4000864060020D7
:10181000A4B40008B7B40008CAB4000802B50008B0
:1018200065B4000870B50F4E04460D46337871B1AB
:1018300023B10D49BDE8704005F0C2BF01233370EC
:1018400020460A4905F0A0FF0123337004E083F02D
:1018500001033370002BF3D129462046BDE87040C8
:1018600005F0FDBF6C0A00201CB5000857B5000844
:101870002DE9F04105460C46DFF8EC803B4E8F1811
:10188000A74201D1BDE8F08198F8002014F8013B8F
:10189000182A22D1112B20D10026354C2846226847
:1018A000344988F8006005F06FFF28463146FFF79D
:1018B000B9FF314B18780028E4D1304A2368116809
:1018C000042B2EDC08B12360116013F003012FD12B
:1018D000126813681BBA1360D4E7A3F13002092A17
:1018E00088F8003004D923F02002413A052A04D8B0
:1018F0003168234A5354013131603368022BBFD120
:10190000102200211E4804F065F91E4A136803F8EE
:10191000010B1360164A1368013313600023336010
:10192000AEE70868043B00BA41F8040B0120C7E7A2
:101930005B4203F0030358BF5942022904D11268E5
:1019400013885BBA9BB2C6E703299BD11068026873
:101950001104C2F3074301F47F010B4302F47F42F9
:10196000134303608EE700BF6D0A0020700600205D
:101970007406002081B500086E0A00207806002059
:101980006F0A00207C0600202DE9F84F0023064650
:1019900015460C462949DFF8A8800B602949DFF875
:1019A000A890DFF8A8B088F800300B60012C2F4613
:1019B00055F804AF1ED902224946504607F0D1FE21
:1019C00080B99AF80220003A18BF0122924450468A
:1019D00002221F4907F0C5FE30B9012388F8003004
:1019E000013CE3E70022F1E749465046FEF794FD4B
:1019F000A8B9043700227868114604F0EBF80022F9
:101A0000144B11461860786804F0E4F8124B13493F
:101A100018603046FFF706FF0020BDE8F88F9AF8FF
:101A200000202D2AE6D19AF80120002AE2D0524661
:101A30005946304605F0A8FED2E700BF70060020E8
:101A40006E0A0020740600209BB50008A1B50008AE
:101A50009EB500087C06002078060020711800085A
:101A600007B50A4807F0AAFB60B10423084A0093AF
:101A7000126801230549074800F006FF002003B063
:101A80005DF804FB6FF01200F9E700BFF89D000855
:101A900088A60008BCA0000810B54468C4E900127C
:101AA000A36042684021134653F8404B5163536290
:101AB000002302F13801C2E904130821C2E90A3304
:101AC000C2E9063313631162C2F8B830A36823B1C8
:101AD0009B6C13B1204604499847A3689B6A0BB1DD
:101AE00020469847002010BDED1A00082DE9F34765
:101AF00005460C4683685B6C03B19847AB685B6B2B
:101B00006BBB4FF0000904F1240704F12808218E73
:101B1000238D626B5B1A9BB2D31A934228BF134684
:101B20004146384601AA05F0FFFB8246002842D014
:101B3000AB6801999B6993B30246284698470646CD
:101B400080B332464146384605F024FC56454FF0F6
:101B50000109DCD00020D4E90131984703E0284690
:101B600098470028CDD1AB685B6A93BB628BE38A50
:101B700004F110079B1A226A9BB2934204F11A08DF
:101B800028BF13464146384601AA05F0CDFB06465C
:101B900030BB284605F07FFCC4F8B8602CE06FF03D
:101BA0005706CEE702464146384605F0F3FBB9F149
:101BB000000FD8D0CEE75721134805F047FCAB689B
:101BC0009B69002BF3D0012228460DF103019847B1
:101BD000EDE7284698470028C8D102B0BDE8F08755
:101BE000AB6801995B6963B1024628469847024693
:101BF0004146384605F0CEFBD4E901310120984733
:101C0000EBE76FF05702F3E708B7000810B504469A
:101C10008168183101F07EF9A1682046BDE81040C6
:101C2000014A183101F00EB93CB7000838B5836895
:101C30000446D3F87832DB071AD4406803685B683F
:101C40009847054620B9E06806F05FFCA3681D755B
:101C5000A3685B6C13B1294620469847002207F021
:101C6000D9FFA368C3F89822034B185801F03CFE33
:101C70006FF00F05ECE700BF08000000014905F018
:101C800090BC00BF3CB000082DE9F04FA7B004465F
:101C90005422002111A807F0EEFE0023CDE9053300
:101CA000A36820465633029306F06FF9204606F0EB
:101CB000B3F810B96069FFF7E1FF00264FF0FF3875
:101CC000B246B3463546B146A0681422002118300A
:101CD00007F0D1FE204605F0FAFFA168E068B1F8F0
:101CE0005020563106F0D6FB204606F037FC11AFE7
:101CF0000396DDE90532012A6CD0132B6DD8B8F1BB
:101D0000000F2BD1BBF1000F0AD0204606F047FC94
:101D10001423A26811A956320DEB030005F057FEFB
:101D2000B9F1000F0CD099F81130FE2B08D1059BAA
:101D300026AA02EB830252F8542C0AB10133059310
:101D4000A068059D436A002B40F0B580C6B1C36909
:101D50009E422BD00D9600F1180522E00223394651
:101D6000029A06A805F033FE7A68069903460292A5
:101D700031B101290AD148B1694A204606F0B4F9C7
:101D80006FF00705284627B0BDE8F08F059B002BB4
:101D900032D0386801F0F0F898B166B1A5680D96B8
:101DA00018350CAE0FCE0FC533682B602046FFF7F9
:101DB0002DFF0125E6E75B4A0121204606F094F954
:101DC000DEE7059BC3B1294620463A6801F076FA62
:101DD000022809D1059B132B94D9069B022B91D184
:101DE0000121514B514AC8E7032805D0059B4FF00C
:101DF000010B013305937CE7039B2BB948463968F7
:101E000007AA05F0DBFE0546043708F1FF38A5B345
:101E1000EB68BBF1000F08D0FBB1204606F0B5F827
:101E2000204606F010F8424AC6E7B3B1AE46A368B2
:101E3000DDF814A003F1180CBEE80F00ACE80F00A9
:101E4000DEF80030CCF80030AB6833B96B7CFE2B89
:101E500004BF95F8108008F1FF38D5F804C0BCF134
:101E6000000F08D0AE460CAEBEE80F000FC6DEF87D
:101E7000003033606646A94603E0059B63B1012349
:101E80000393069BB8F1000F02D1022B7FF431AF10
:101E9000059B013305932CE7A368DB6A13B1DB686C
:101EA000002BECD1234B012100932046119B224AA9
:101EB00006F01AF9E3E790F82830A5EB0A05BBB164
:101EC0004FF6FF7290F82910FF2918BF0A469D426D
:101ED00002D313449D420BD9836901212046174A3E
:101EE00006F002F92046FFF791FE6FF0150549E76D
:101EF000012105F075FBA06805F066FBA36811AA37
:101F000029465B6A02EB8A02204698470546A0688C
:101F100005F05EFB0021A06805F062FB32E700BF20
:101F20004AB700085EB70008BFB700087EAE0008D9
:101F30007CB70008ABB70008B9BA0008E3B70008DF
:101F4000F7B5044680680D46D0F878325A0705D5B3
:101F5000002105F050FBE06806F06EFAE368DB68EC
:101F600073B9002D3BD0A66806F15607384605F038
:101F700025FB002835D0394606F5AB70FEF7D6FABA
:101F8000A2682946E0680DF10603563206F057FABA
:101F900058B9A06800F5AB715630FEF7C7FAA068D3
:101FA000563005F00BFBADF80600204605F0E6FFC5
:101FB000A368D3F874329B0603D50B49606905F01A
:101FC000F0FA204600F078FDA268BDF80630204601
:101FD000A2F85230A268A2F8503005F034FF03B0E6
:101FE000F0BD86F85601CBE748A20008022210B5E2
:101FF000836804461A7583689B6CBBB905F0A8FA20
:102000008368D3F87832DB040BD50321084B094AE7
:1020100006F06AF8A0686FF4805100F51E7005F0B4
:10202000B1FA2046BDE8104000F0CEBE10BD00BFA2
:10203000FEB70008EDB200082DE9F04F04468068B5
:102040000121B1B000F51E7005F08DFAA3681B7D6B
:10205000022B26D100230993A36860689E6C036855
:102060001D6909AB3EB310221BA9A847099BC3B148
:102070000121A06805F0B4FAA06805F0A5FA099A54
:102080001BA92046B047A06805F0A2FA0021A0686D
:1020900005F0A6FAA3689B6C002BDDD12046FFF764
:1020A000A5FF6FF00101A06800F51E7031B0BDE81A
:1020B000F04F05F067BA01220DF12301A847099BF3
:1020C000002BEED09DF923209DF82330002AA06834
:1020D000C2DB427D032A00F2F482DFE812F0040042
:1020E00074028B02F2020D2B67D00A2B43D0B0F89A
:1020F0007822092B6FF3CA02A0F8782272D029D86F
:10210000002B00F00381082BA06800F0E881024654
:10211000D2F87412890740F1F980013B162B00F2C6
:10212000F580DFE813F0B702F901FD01F501B10216
:102130000F02F300F300F300F30013021702F300A1
:102140002C02F3003102F300F300F300F30033023A
:10215000F30048021B2BA06841D07F2B00F0CB81FD
:10216000A3F120015E290246D2D8012105F043FAED
:102170009DF82310B8E0D0F87822C2F3C7022AB144
:10218000D0F87822C2F3C7020A2AC0D1B0F8782268
:1021900063F3CA02A0F87822A568B5F85010C1B957
:1021A000284605F028FAE06806F046F96069FFF76E
:1021B00065FD2046FFF71AFF4EE7D0F87822C2F3FC
:1021C000C702002AE2D0D0F87822C2F3C7020D2A53
:1021D000DBE72046FFF758FDC5F89C02E9E701233D
:1021E000437593E0A068D0F874329B0740F18E806D
:1021F000012105F000FAA068B0F85030FF2B00F084
:1022000085800025B0F8522000F1560100F5AB7032
:1022100007F009FCA3681BA9B3F852200BA81344CC
:1022200083F85651A268142302F5AB7205F0CFFB78
:102230000B9914296AD830AB03EB810343F8545C43
:10224000A368B3F85220002A52D0134493F85530B3
:10225000202B02D0093B042B4AD800294BD1002562
:102260000A950A9B30AA02EB830353F854AC00266C
:10227000504605F0A3F9B3468146B0463746394685
:10228000284616AA00F078FB0346002842D1012E0A
:1022900068D10A9B30AA02EB830353F8540C05F073
:1022A0008DF9A268064641462846183200F064FBC4
:1022B0000568284605F082F9864205D0821B92B255
:1022C0002046A91905F057FFA068B0F85230034422
:1022D00093F85630202B34D0093B042B31D9D0F859
:1022E0007432DF0732D42021204600F035FD0DE0A6
:1022F0000129B4D9013900200CAB009301900AAB3D
:102300001BAA05F086FC05460028AAD1606905F0E5
:10231000ACFAA1E61B684A4651461846039307F0FB
:1023200020FA60B9039B1846FEF708F9584538BFF4
:102330005846002E08BFB8461FFA80FB0136013709
:102340009DE70121204605F0B2FDDFE7002105F001
:102350005CF92021204600F0FFFC0121A06805F077
:1023600054F9D3E70490D1D90A9A30AB03EB820237
:1023700052F8543CC1461846039305F01FF9049BDC
:10238000A2680590A2F840300496A2684946284603
:10239000183200F0F1FA039BD0F800A009F101090E
:1023A0004BB1BAF1000F06D019465046059A07F016
:1023B000D8F90028E9D1A168BAF1000F4DD1A1F8F0
:1023C00040A0049B013B0493DFD16069FFF756FCFA
:1023D000204600F0F9FC0A9B30AA02EB830353F875
:1023E000540C05F0EBF8414611AA8146284600F04E
:1023F000C3FA0746A0683968FF2200F5AB7007F002
:10240000C2F93B684FF6FF7708F1010AB84603931B
:102410005146284616AA0AF1010B00F0ADFA002831
:1024200051D00022A168036801F2551111F801EFA3
:10243000985C704503D110B101324245F6D1B9F133
:10244000000F01D04A4506DBBA42A8BF3A46013E1A
:10245000012E97B237D0DA46DAE79B48069105F0AD
:10246000ADF8069900EB0B074A8FBFB2121A92FB28
:10247000F7F2504692B20791069205F09FF807993D
:102480003F1AB1F84000069A00F1010CA1F840C0D3
:10249000B0FBF2F102FB110080B2BFB260B90621BD
:1024A0002046894B894ACDF800A005F01DFE39462B
:1024B000204600F0EBFA84E7534606212046844A82
:1024C00005F012FEF3E7002F3FF420AF0399A7EBCE
:1024D0000902204692B2494405F04DFE16E7D0F8B5
:1024E00074329E077FF512AF012105F084F8204673
:1024F00005F062FE0AE7D0F874329D077FF506AF5B
:10250000012105F078F8A368D3F874321807EED4E7
:10251000204605F032FEF9E6204605F03FFDF5E6DF
:10252000204605F032FD204605F076FC10B96069C2
:10253000FFF7A4FBA068012105F05DF82046FFF736
:1025400055FDE3E6204605F032FDDFE6204605F0C6
:1025500039FDDBE6D2F874329F0603D55D49606928
:1025600005F01FF8A368D3F874329E0603D55A49C4
:10257000606905F016F8204600F026FCC6E600214A
:102580002046FFF7DDFCC1E60121F9E7204605F012
:10259000F5FC204604F0DCFF0121A06805F02BF8D3
:1025A000A368D3F874329D067FF5B0AE4B496069DD
:1025B00004F0F7FFAAE6204600F0F8FA0121A0682F
:1025C00005F019F8A2E65B2B01D1022308E6D0F84A
:1025D0007422900706D5622B08D14FF0FF312046B8
:1025E00005F08EFC0022A3685A758FE6662BF9D1A0
:1025F0000121F4E700224275A268D2F8741289071B
:102600007FF52AAD313B1B2B3FF680AE01A151F87F
:1026100023F000BF912600089D260008B12600087F
:10262000852600080D2300080D2300080D2300084F
:102630000D2300080D2300080D2300080D230008BA
:102640000D2300080D2300080D2300080D230008AA
:102650000D230008892500087F250008452500086E
:10266000192500080D230008892600080D230008FD
:10267000952600080D2300080D2300080D230008EF
:10268000A126000803235375204605F07EFC3DE695
:1026900003235375204605F071FC37E60323537579
:1026A000A068D0F8741201F0010181F0010156E632
:1026B00003235375A368D3F874329B077FF526AEC6
:1026C00026E700238CE500BFF8B9000842B80008EF
:1026D000EDB200084DA2000852A2000848A200086E
:1026E0002DE9F34104468068154600F51E70002967
:1026F00035D04FF4804104F036FFA3680021DD643B
:10270000606803689B68984770BB204604F0BBFF75
:1027100050BB4FF0FF364FF0FF37154DDFF85480B8
:10272000A06800F51F7000220721CDE9006706F0C0
:10273000F1FFA06804F04CFF2A460421204604F073
:1027400073FF20464246012104F06EFF6068036873
:102750005B6903B19847A06804F036FFE0E76FF4C7
:10276000804104F00FFFC8E702B0BDE8F08100BF70
:102770002D1C00083920000810B504460A4905F050
:1027800003F82046094904F0FFFF2046084904F0F9
:10279000FBFF2046074904F0F7FF20460021064AC8
:1027A00000F050FB002010BD48B8000886B80008B3
:1027B000E5B8000839B90008D4B90008F8B51E46D4
:1027C00017460A462949044604F0DEFF3EB3204678
:1027D0003A78274904F0D8FF01256A0703D120463B
:1027E000244904F0D1FFAE421ED920467A5D20492B
:1027F00004F0CAFF0135102DEFD120461E4904F028
:10280000C3FFB6B920461B4904F0BEFF0125AE4206
:102810002B4610D82046174904F0B6FF15E0204695
:10282000164904F0B1FF01252046144904F0ACFF1D
:10283000E0E700252B46FA5C2046A2F120035F2B3F
:1028400028BF2E220E4904F09FFF0135102D06D01F
:102850006B07DCD12046074904F096FFD7E72046F6
:10286000BDE8F840074904F08FBF00BFEAB900088F
:10287000F1B90008F9B90008FBB90008F7B9000878
:102880001DBA0008FDB900082DE9F0410446806832
:102890008846D0F8986215461F4688B0002E4FD162
:1028A0004FF42872314607F0E6F8A06800F51F7073
:1028B00006F024FFA06800F522700122114606F000
:1028C00001FDA36902211E60A06866F3820500F580
:1028D0001E7004F048FE5022A36820465A87182232
:1028E000A3681A87216804F079FFA3684146C3F8FA
:1028F00074526068144A03681D682346A847054659
:10290000D0B90122A3681A75D4E90A010022002374
:10291000CDE906230E2303930E9B4FF40062CDE90D
:1029200001730495094B009402F024FAA368C3F8DC
:102930009802616A02F05EF9284608B0BDE8F081AD
:102940006FF07705F8E700BF61760008E126000820
:1029500010B5044613460A460146064801F0AAF897
:1029600023691B7923B12046BDE8104004F07DBFE8
:1029700010BD00BF8378000838B50B46154648B92E
:102980001449154A521AB3EB920F05D251F823504D
:10299000284638BD84680CB90025F9E70F4A9442EF
:1029A0000AD30F4A944207D2184629462268904714
:1029B0002B68002BECD1EFE70A4A944202D30A4A73
:1029C000944205D3246814225343E518E358F0E7F2
:1029D0000133F8E7ECA000081CA1000820A20008C1
:1029E00028A200081CA1000820A20008F7B503785F
:1029F00004462D2B164605D16FF0150300203360D9
:102A000003B0F0BD07F006F9002305460A4F0A4659
:102A1000C35101A9204603F0DDF8EB59222B02D166
:102A20006FF02103EAE7002BE6D1019BA342E3D03C
:102A30001B78002BE4D0DFE70C0000008368D3F89C
:102A400074329B0603D50249406905F0C6B9704748
:102A500058A20008014905F0C0B900BF3CB0000809
:102A60000A1E0DDC0ED042238168D1F8741289064B
:102A700008D5002A04494069B8BF524205F0ADB9F3
:102A80004123F1E7704700BF19BA00080A1E0DDCA8
:102A90000ED044238168D1F87412890608D5002A23
:102AA00004494069B8BF524205F097B94323F1E7A2
:102AB000704700BF19BA00082DE9F0478568044641
:102AC00005F15600FDF73AFD0023984695F83C7055
:102AD000DFF8549086B2A268558FED1BB54209DB32
:102AE000002E1FDD5633606910491A44BDE8F047D7
:102AF00005F073B91D442A4492F856A082F8568016
:102B0000A26856331A444946606905F066F9A3681D
:102B10002B4483F856A0A3685B8FDB1BF61A0027B3
:102B20002B46D8E7BDE8F0877EAE0008EDB200087E
:102B300008290A4617D8836893F83E10914212D0AC
:102B400083F83E208368082AD3F8743205D09906AA
:102B500009D50549406905F040B99B0603D50349ED
:102B6000406905F03AB9704720BA00085DA2000834
:102B700038B50D4609780446FFF7DAFF6A78072A68
:102B800011D8A36893F83F1091420CD083F83F20EE
:102B9000A368D3F874329B0605D560690249BDE885
:102BA000384005F01AB938BD29BA0008F8B583686D
:102BB0000446B3F85020002A55D0B3F8521000292B
:102BC00051D0553103F156050B441946A94206D39D
:102BD000084610F80169202E3CD0A9423CD28EB2A2
:102BE0009DB2AB1B9BB2581C4F1CD21A01443846F5
:102BF00006F027FFA268711BB2F8503089B20B446F
:102C0000A2F85030A3682046B3F8502009B213440C
:102C1000002283F8562005F04AF9A368D3F87432ED
:102C20009A0603D51049606905F0D7F83B4608219C
:102C300020460E4A05F058FA2046FFF7FFFEA3682B
:102C4000D3F874329B060ED560690949BDE8F84097
:102C500005F0C3B80146B9E7084610F80169202E0F
:102C6000BDD00146B9E7F8BD62A20008EDB2000888
:102C700066A200082DE9F84F04460E4617460AB131
:102C8000FFF7DCFED4F808A0DAF87432BAF85290F4
:102C90005B0723D509F156005044FDF74FFC05466C
:102CA000DFF8A880A5B9A368B3F85020A3F8522094
:102CB000A06805F09FF820B107B116B16069FFF771
:102CC000C9FE71422046BDE8F84F09B205F0EFB8E1
:102CD0004146606905F081F8013DE3E75046FDF7A4
:102CE0002DFCBAF85080BAF83A2085B2A8444D4479
:102CF000B5FBF2F3B8FBF2F29342CB461DD0DFF8FE
:102D000050904545A368CEDA5A8F05F1010AB5FB0C
:102D1000F2F302FB135313B96069FFF79BFEA3683C
:102D20000BF101055B444A460821204693F85630D2
:102D3000AB4605F0D9F95546E3E709F156030821FA
:102D40002046044A534405F0CFF9ACE786AF0008AB
:102D50001DBA0008EDB2000813B583688DF807109E
:102D6000D3F874220446D00725D5B3F85210B3F82F
:102D700050208A421FD0481C9DF80720A3F852001B
:102D80000B4483F85620A368D3F87412890710D532
:102D9000D3F87432606913F0040F18BF2A2209496E
:102DA00005F01BF8204605F037F810B16069FFF711
:102DB00051FE02B010BD012220460DF1070105F0C1
:102DC000A0F9F6E71DBA000810B504468368022191
:102DD000084A05F089F9A368D3F874329B0707D530
:102DE0002046FFF769FE2046BDE8104005F03AB8DE
:102DF00010BD00BFEDB20008014905F005BA00BFE3
:102E00003CB00008F8B50F465168044615461E460A
:102E100011B11A4605F005FAAB6883B13146204678
:102E2000FFF734FE20463B460821054A05F05CF9D1
:102E30002046A968F21DBDE8F84005F0F2B9F8BDDA
:102E400032BA00082DE9F04F0F460021044616461D
:102E50000D4689B0384603AA01F10108FFF78CFD41
:102E6000A8B98DB126B132460821204605F03CF9BB
:102E70000021DFF89090DFF890B0384603AA01F106
:102E8000010AFFF779FD60B909B0BDE8F08F00686D
:102E900010B1FDF753FB80B2854238BF054641466D
:102EA000D8E7D0F80080B8F1000F0FD098F80030C4
:102EB00063B146684B4608212046CDE90058134AC5
:102EC00005F012F926B96069FFF796FF5146D4E77D
:102ED0004B465A460821204605F006F9AB1DB207BD
:102EE0009BB209D131680A4A914205D13246414626
:102EF0002046FFF787FFE9E71A463146204605F0EE
:102F000090F9E3E757BA000844BA00083DBA000850
:102F1000C40BD286F7B50F6805460E46EFB13846AA
:102F2000FDF70CFB84B2114B0821009328463B4669
:102F30000F4A05F0D9F87168E31C9BB279B18A0792
:102F40000DD108680B4A904209D10A4628463168DB
:102F500003B0BDE8F040FFF755BF3C46E3E71A4633
:102F6000284603B0BDE8F04005F05BB953BA00084D
:102F700043B80008C40BD28610B507490446FDF7D4
:102F8000CBFA38B120460549FDF7C6FAB0FA80F011
:102F9000400910BD0120FCE749BA00084CBA0008FE
:102FA00010B583680446D3F874329B0603D50649EE
:102FB000406905F0A6F95022A36800205A8718221C
:102FC000A3681A8710BD00BF6AA2000808B583690C
:102FD00002491A6804F0D8FB002008BD5ABA00085C
:102FE0002DE9F3410D49054604F0CEFB00220C4CBF
:102FF0000C4EDFF83480B44202F1010703D3002005
:1030000002B0BDE8F081636A92B20093A3684146C2
:10301000284604F0B9FB30343A46ECE76ABA0008B7
:10302000BCA00008ECA0000882BA000808B502495C
:1030300004F0D4FB002008BD3DB0000873B5044681
:1030400000250D4EA2680DF106030121E06802F58E
:10305000AB7205F0F4F9BDF80600A36840B12A464A
:103060003146204603F5AB7304F08EFB0135E9E7EA
:1030700083F8560102B070BD93BA000810B504463B
:1030800004F0E5FB03490246204604F07DFB0020E6
:1030900010BD00BF97B50008022907B50BD15368D2
:1030A0000C49009312680C4B04F08AFB6FF015007A
:1030B00003B05DF804FB8368084AD3F8743208490A
:1030C00013F0020F074B18BF1A4604F05DFB0020F7
:1030D000EEE700BFB6BA0008A1BA00089DBA000822
:1030E000BFBA000833AF000810B583680446D3F8B0
:1030F00074329A0603D50749406905F002F9A368BE
:10310000D3F874329B0603D50349606905F0F9F8DA
:10311000002010BD71A2000876A20008F0B50129B8
:10312000044685B00AD053685E49009312685E4B2E
:1031300004F046FB6FF0150005B0F0BD8368D3F8CE
:103140007432990603D55949406905F0DAF800252B
:103150006FF0F9012046FFF783FCFA212046FFF7C4
:1031600095FCA0684FF48072294600F5AB708DF88D
:103170000B5006F080FC4E49606905F0C2F86069AA
:1031800004F073FB4FF47A766068012203680DF156
:103190000B011F6903ABB847039BEBB9013E4FF42A
:1031A0007A70B6B205F0DBFF002EEDD1A368D3F83C
:1031B00074329B0603D53F49606905F0A2F850229E
:1031C000A36820465A871822A3683B491A8704F04F
:1031D000E9FA6FF00700AFE79DF80B20A3681B2A00
:1031E00053D093F856111B29CED1522A4DD15A19DA
:1031F000002382F85631A66896F857215B2A2BD116
:10320000022106F2571515F8010F0A463B2801F175
:10321000010189B223D1FF2AC8D0002002F5AB7288
:1032200092B2324412F8015F1DBBFA2828BFFA207F
:10323000FA2B28BFFA2386F85651A2685087A26855
:103240001387A368D3F874329A0603D519496069C5
:1032500005F057F800206FE786F85631A6E703EB34
:103260008303303800EB4300B1F5807F83B2CAD1CD
:103270009CE7013100EB800089B2303D05EB400551
:10328000B1F5807FA8B2CDD190E72B440135ADB226
:10329000092D83F856217FF677AF0022A36883F8C3
:1032A000562183E7B6BA0008A1BA00087CA200083C
:1032B0000ABB000880A20008D0BA00082DE9F04F30
:1032C00007461546894689B021B1104605F032F906
:1032D00000285BD1032455E05C463CE029460AF512
:1032E000AB7006F06CFA0646002854D0FDF726F9BC
:1032F00082B2601C31460132304406F0A2FB224605
:103300005946304606F08FFB4FF020033355BAF88C
:10331000543008F1010801331C44AAF85440002439
:1033200001994B1C484603AA0193FFF725FB06466B
:10333000E8B100222846316805F0BDFA0028EFD137
:10334000D6F800B0D7F808A0BBF1000FC4D058469B
:10335000FDF7F4F884B2BAF854302344FF2BBDDDF6
:103360002B46032138460D4A04F0BEFE0124B8F175
:10337000000F07D0B8682A4600F1540100F5AB7081
:1033800004F0F5FB204609B0BDE8F08F4FF00008CF
:1033900002244146C5E70224E9E700BFD2BF000886
:1033A00008B50348034A0021121A05F008F908BDC0
:1033B000F0000020940A0020074808B5074A084991
:1033C000121A05F0FEF8BDE808400648064A07490B
:1033D000121A05F0F6B800BF00000020EC00002033
:1033E00000C80008000000200000002000C80008FD
:1033F00037B505460C46C9B18B6814480093D1E92E
:103400000023452104F022F8636945210093D4E9A3
:1034100003230F4804F01AF84521E2690D4804F02F
:1034200015F84521A2690C4804F010F8012D06D1C9
:10343000EFF3058245210948103A04F007F82146C8
:10344000284603B0BDE8304001F0FAB924C00008B6
:1034500058C000088CC00008A0C00008D3C00008F5
:1034600030BFFFF7FDBF00BF2DE9F04105460B4E11
:10347000DFF82C80324606EB0807CC1B20460949B2
:1034800006F0D1FAA01942460021083C06F0F3FAF2
:10349000C5F8B44007F10800BDE8F0810000000065
:1034A0000800000028A20008054B5A699B689A4250
:1034B0001FBF044A536843F080535360704700BFF6
:1034C0003C0A002000ED00E010B5204C45212048CA
:1034D00003F0BCFFA36A990136D51E48452103F0CD
:1034E000B5FF1E20A36ADA0104D51B48452103F06D
:1034F000ADFF1F20154CA36A1B0304D517484521B7
:1035000003F0A4FF2120A36A590304D514484521E0
:1035100003F09CFF22200D4CA36A9A0304D51148A6
:10352000452103F093FF2320A36ADB0304D50E4853
:10353000452103F08BFF2420044A936A6FEA03437A
:103540006FEA1343936210BD1D20CBE700ED00E04E
:10355000EBC0000808C1000820C100083FC10008F6
:1035600062C100088CC10008ABC1000870B5244CD2
:1035700006460D462348452103F068FFA36AD90497
:103580003BD52148452103F061FF1720A36A1A05A6
:1035900004D51E48452103F059FF1820184CA36A92
:1035A0009B0511D545211A4803F050FFA26BA36A71
:1035B000190408D54521174803F048FF1EB1A36A36
:1035C00023F40043A36219200D4CA36A5A0504D5C5
:1035D0001148452103F03AFF1A20A36ADB0504D500
:1035E0000E48452103F032FF1B20054A936A43F43D
:1035F0007F43936200232B7070BD1620C6E700BF87
:1036000000ED00E0DBC10008F6C100080CC20008B4
:1036100024C2000842C200085CC200087CC2000844
:1036200070B5224C06460D462148452103F00EFF99
:10363000A36AD90637D51F48452103F007FF11209B
:10364000A36A1A0704D51C48452103F0FFFE122087
:10365000164CA36A9B0711D54521184803F0F6FEC6
:10366000626BA36A190608D54521154803F0EEFEE2
:103670001EB1A36A23F08003A36213200B4CA36A3C
:10368000DA0704D50F48452103F0E0FE1420A36AB1
:10369000064ADB0658BFA36A936A43F0FF039362AE
:1036A00000232B7070BD1020CAE700BF00ED00E0C2
:1036B00099C20008B4C200080CC20008ECC200089D
:1036C00009C3000824C300082DE9F0415F4B0446FC
:1036D0005F6800258AB0C7F3080685F31188BFF339
:1036E0006F8F02F07F43B3F17F4F07D102F00C03DD
:1036F000082B14D14521564803F0A8FE00252C467E
:103700004FF00008F31E8DF80780092B00F28C8023
:10371000DFE803F00A7F837B8A8A8A8A8A87100718
:103720004CBF0C460125EBE745214A48474E03F0C4
:103730008DFE8DF80780F36A9A0705D54521464826
:1037400003F084FE002332E0F36A002B02DA452105
:103750004248F5E7F36A5B00F4D54521404803F0A1
:1037600075FE7369A26943F480737361BFF34F8F71
:10377000BFF36F8F736932F8022C23F48073736187
:10378000BFF34F8FBFF36F8F4DF602739A4208D08D
:10379000B36ADBB25BB301200DF10701FFF740FF15
:1037A00035E0452122682F4803F050FE23689DF83C
:1037B0000720CAB902AE04F12007324620686168CA
:1037C000083403C2BC421646F7D1099A002D38D0FE
:1037D000C2F3080121B96FEA52226FEA422209922C
:1037E000184602A9FFF704FE0AB0BDE8F081B36AEB
:1037F00013F47F4F05D001200DF10701FFF7B6FE4E
:1038000005E0B36AB3F5803F9CD3FFF75DFE034646
:10381000CDE700200DF10701C0E700200DF1070101
:10382000ECE7452110488BE7104917F4F87F104A60
:10383000104808BF0A46A6F11003452103F006FE12
:1038400080E722F4FF7222F00102C8E700ED00E0F9
:1038500076C30008A6C30008C2C30008E8C3000876
:10386000FBC300081FC4000840C4000848C3000888
:103870005DC3000869C40008044B5A6942F0100295
:103880005A615A6922F008025A61704700ED00E05F
:10389000EFF30880EFF3098101B57246FFF714FFDB
:1038A00001BD00BF0E4880F30888102080F3118806
:1038B0000C484FF0AA014FF4006204F080FE094862
:1038C0004FF40061401880F30988EFF3148002215F
:1038D000084380F31488BFF36F8F04F083FE000069
:1038E00098350020981C0020084B9B6883420BD120
:1038F000EFF3058343B1064B5A6842F080525A6099
:103900005A6A22F400425A6201F022BD3C0A0020A9
:1039100000ED00E012498A684FF030001044EFF3E8
:10392000098C80E8F01F102080F31288BFF36F8F9E
:103930000C4F4FF000664A698A603E60D2F8B400CE
:10394000094C2060D2F8B8000023C2F8B83080F3E8
:10395000118802F1300090E8F01F8CF3098870475D
:103960003C0A002004ED00E0240900201EF0040FB2
:103970000CBFEFF30880EFF30980816911F8021C96
:103980000229FFD001B5724604F01DFE01BD00BF43
:1039900040B2002807DB01234109034A00F01F0061
:1039A000834042F82130704700E100E040B2002837
:1039B00001F10101ACBF00F16040064B4FEA01117B
:1039C000C9B2ABBF00F5614000F00F0080F80013F2
:1039D0001954704714ED00E0054B064A23F04043AC
:1039E00023F07F039360BFF34F8FBFF36F8F704758
:1039F0000000000800ED00E042F8203C009B0B496D
:103A000042F81C3C019B21F0010142F8183C029B4A
:103A100042F8081C42F8143C4FF0807342F8043C12
:103A20000023203A0265C0F8B83070476D0B0008DB
:103A300000B50C4B15469860D0F8B4200A4B0E46E2
:103A40001A602C4686F309880020044B98472046CC
:103A5000002100220023024C2047000001860008BC
:103A60006D0B00083C0A0020240900201022014BA5
:103A70001A61704700ED00E0002310210348C218CE
:103A800001332B2B82F80013F9D1704700E100E0DD
:103A900008B5EFF30583064A103B02EBC30152F869
:103AA000330049688847BDE80840FFF7FDBC00BF08
:103AB000189E0008F0B587B007460E461446002150
:103AC000102268461D4605F0D6FF02238DF802300D
:103AD000054B2A4621466846CDE90476019302F05B
:103AE000FFF907B0F0BD00BF2986000808B5024BFA
:103AF0001B689847002008BD28090020034B044A92
:103B00001860937843F002039370704728090020EF
:103B10004400002008B50649064821F00701C1F11C
:103B2000005202F5A04203F083FB002008BD00BF55
:103B30009F3500202C0900200268064B1A6042685D
:103B4000054B1A608268054B1A600269044B1A60C3
:103B5000704700BF400900203C09002038090020C0
:103B60004409002008B5012300F01F011F28024668
:103B700003FA01F305D90648452103F067FC00204C
:103B800008BD044A526993430CBF01200020F7E7A7
:103B900081C400080004014008B5012300F01F01A2
:103BA0001F28024603FA01F306D90548452103F010
:103BB0004DFC6FF0150008BD024A00205361FAE782
:103BC00081C4000800040140044B18440023013361
:103BD000994200F8012BFADC704700BFAD000020CD
:103BE0002DE9F041054600264FF001080E4F6B7895
:103BF000F4B2A34201D8BDE8F0812B781C442046E2
:103C0000FFF7B0FF68B12046FFF7C6FF57F8343022
:103C10003BB107EBC40204F01F04516808FA04F03A
:103C200098470136E3E700BF48090020034660B12A
:103C3000B0FA80F2C2F11F02D2B205498856054A95
:103C400011680B431360FFF7A3BEFF22F5E700BF27
:103C5000AD00002000040140024A136823EA00037B
:103C60001360704700040140032921D8DFE801F008
:103C7000020C10190F4B9A6822EA00029A60DA6867
:103C800022EA0002DA6070470A4B9A680243F5E7BD
:103C9000084BDA680243DA609A6822EA00029A6006
:103CA0007047044B9A6802439A60DA681043D86000
:103CB000704700BF0004014030B5B0B1B0FA80F3E6
:103CC000C3F11F03DBB20B4850F833408C4204D1E0
:103CD00000EBC3056D68954205D044B940F8331038
:103CE00000EBC3004260002030BDFF23EBE76FF024
:103CF0000F00F9E74809002060B1B0FA80F3C3F182
:103D00001F03DBB20021044A42F8331002EBC30266
:103D100051607047FF23F5E7480900200F2300F0AA
:103D2000030204329200934043EA9000C3B2064A71
:103D3000023352F82320030C93FAA3F3B3FA83F36C
:103D400002EA1040D84070470000014038B51C4BD3
:103D50000D4618680B881446C3F30B03013B1B2B5D
:103D600028D8DFE803F00F1E1E0E1E27180F0F279E
:103D70002727272727272727270F2727270F272703
:103D80002716104820602B68B3F5805F0BD2002007
:103D900038BD4008F6E704F08CFE70B104F089FEEF
:103DA000F0E70020EEE7C3F313330133B0FBF3F089
:103DB0002060ECE76FF08500EAE76FF00400E7E7CA
:103DC0009C00002000127A0070B5374D04F073FE9D
:103DD000284604F06DFE00F0D1FC344C344A636890
:103DE000C3F30313D35C20FA03F613781D41AE42EC
:103DF00002D2284600F0E8FC23689A0706D423681C
:103E000043F00103236023689B07FCD5636803F03C
:103E10000C03082B15D12368980706D4236843F0B8
:103E20000103236023689907FCD5636823F003032B
:103E30006360636813F00C0FFBD1636823F0F00339
:103E40006360236823F08073236023689A01FCD4A5
:103E500000F032F8236843F08073236023689B01ED
:103E6000FCD5636823F0F0036360636823F0030309
:103E700043F002036360636803F00C03082BFAD17C
:103E8000AE4202D3284600F09FFC0A4B064A0020AF
:103E90001A60636823F4E06343F4806363606368DB
:103EA00023F46053636070BD006CDC0200100240BC
:103EB0006CC600089C000020054A536823F47C135C
:103EC00043F420135360536823F480035360704716
:103ED0000010024008B5074805F070F938B10648EF
:103EE000FFF70CFE0448FCF723FE002008BD6FF02E
:103EF0001200FBE7F89D0008FD3E00080A2838B5CF
:103F00000446074D04D1AB680D2128465B689847ED
:103F1000AB6803485B68E1B29847204638BD00BFF4
:103F2000F89D00082DE9F843D0F804801746D0F832
:103F30001090D8F808000D461E4604F00AFDB7F5AB
:103F4000001F044616D12846D8F80840FFF7E6FEC1
:103F500084420CD1294604F0FCFC0446FFF77CFEA9
:103F60002046FFF7C9FE00212046FFF77DFE002016
:103F7000BDE8F883B7F5800F20D0B6F1806F19D077
:103F8000B6F1C06F18D0B6F1007F1AD102264A46AA
:103F900020460F49FFF790FEB0B92846D8F8081020
:103FA00004F0DCFC20463146FFF75EFE2046FFF7BA
:103FB0003DFEDCE70126EAE70326E8E76FF085002F
:103FC000D6E76FF01500D3E76FF00F00D0E700BF22
:103FD000CF8B000838B50369044658600A4D28465F
:103FE00005F0ECF860B1AB6861681B680C3123B177
:103FF0002846984700EAE07038BD6FF05700F9E7AF
:104000006FF01200F8E700BFB89C000800222DE90D
:10401000F347134604468A4211D22BB954F8323082
:10402000C3F389230132F6E754F83200C0F3892044
:104030000028F7D098425ED101329142F4D8E3B122
:104040002E4A13F0010F906940F0010090619269CF
:104050004FEA132002F001020192019AC3F34402D5
:1040600000FA02F0264A09BF5368D369034343F0BC
:10407000E06316BF03435360D361224F04EBC106D4
:10408000A64201D1002011E0D4E9002512F0030975
:104090000FD145F04105C2F3870AC2F3831257F8E6
:1040A0002280B8F1000F15D16FF0120002B0BDE808
:1040B000F087B9F1020FEED0B9F1010F07D115F475
:1040C000C07F0CBF45F0020545F00405E3E745F06D
:1040D0000105E0E7404605F071F80028E4D04B46C2
:1040E0002A4640460AF00F0104F055FE002804F16C
:1040F0000804C5DADAE76FF01500D7E700100240D0
:10410000000001404CAA000843681B6803F1140238
:1041100052E8002F42F0010203F1140040E80021B0
:104120000029F3D10D4A934207D0A2F5744293427D
:1041300003D002F58062934203D11A6942F0400233
:104140001A6103F10C0252E8002F42F4807203F16D
:104150000C0040E800210029F3D1704700380140ED
:1041600043681B6803F1140252E8002F22F0010299
:1041700003F1140040E800210029F3D10D4A9342D5
:1041800007D0A2F57442934203D002F580629342B5
:1041900003D11A6922F040021A6103F10C0252E8BD
:1041A000002F22F4807203F10C0040E80021002966
:1041B000F3D1704700380140F7B5436805460E4615
:1041C0001F68026959B31068D9688368DB6853B106
:1041D00001AA9847041E09DA4521144803F036F96C
:1041E000204603B0F0BD6FF05704F5E71923019C9A
:1041F0005C43B300B4FBF3F46423B4FBF3F103FBBF
:10420000114212013232B2FBF3F202EB01120F2A19
:1042100008D8334645212A68054803F017F96FF09E
:104220001504DDE792B20024BA60D9E764C500083E
:1042300097C50008F8B50C46036941685D682379A5
:10424000012B34D09A1E56425641B6026279022A98
:1042500096BF374F4FF4005C37F812C0A279042A9A
:1042600028D0003B18BF01231B03E279012A0A680A
:104270000CBF4FF440770027A542D1681DD121F42F
:10428000B05131430B43D360136923F4405343EAE5
:104290000C03136143681A68536923F440733B436A
:1042A00053612968FFF788FF00EAE070F8BD4FF41A
:1042B000C066CBE74FF48053D7E701F4C0618E426C
:1042C0001FBFD16821F4C0613143D16042681168D9
:1042D0000A6902F4405294451FBF0A6922F4405211
:1042E00042EA0C020A6142681168CA6802F480520C
:1042F00093421FBFCA6822F480521343CB604368C5
:104300001A68536903F440739F421FBF536923F433
:1043100040733B43536121682B68994205D0FFF7F6
:104320004BFF0028C2DB23682B600020BEE700BFE4
:10433000ECAC00082DE9F3410546476804693748AD
:10434000206004F03BFF48B94521354803F07EF872
:104350006FF01204204602B0BDE8F0812068F968D1
:1043600083681B6833B945212E4803F06FF86FF05E
:104370005704EFE798470446F0B90021386A01AACC
:1043800004F01EFD041EE5DB019B0022197918686C
:10439000FFF73CFE041EDDDB6E682B693468D3F842
:1043A0000480E36823F40053E360706804F006FFC0
:1043B00048B945211C48C9E745211A4803F046F889
:1043C000002CC7DBD9E7D6E901018368DB6803B1BC
:1043D000984704F10C0353E8003F43F00C0304F149
:1043E0000C0141E80032002AF3D141462846FFF78C
:1043F00021FF00280EDB337D1BB1636943F0080306
:104400006361E368284643F40053E3607B6A98479E
:1044100000249FE76FF015049CE700BFB89C0008DC
:10442000B3C50008D7C50008FCC50008F8B50C46A0
:104430004368A6791D6803695F680B794979012B88
:1044400035D102294AD9042E45D04FF4C0624FF429
:1044500080534FF0030C8C453DD1002B77D0002AC0
:1044600014BF03220422B24235D1E37963B1012B98
:1044700031D1394B9D4207D0A3F574439D4203D0FF
:1044800003F580639D4226D1EB68214623F4005357
:10449000EB60FFF7CFFE00281DDBEB6843F4005311
:1044A000EB6094E8030087E80300002015E0022B8E
:1044B00006D102291FD9042E0DD04FF48062C6E721
:1044C00002290A461FD9042E02D123B90022BEE7D1
:1044D00013BB0329C7D06FF08500F8BD1F4A042E17
:1044E00032F811C0F7D04FF4C062033B012BF2D970
:1044F0004FF4805319E0194A042E32F811C0EAD063
:104500004FF48062F1E7154A042E32F811C009D148
:10451000002BE0D11A46EBE7033B012BDBD9D5E7B3
:104520000022E2E7002BFBD11A46BCF5805F08D0E1
:10453000BCF5405F08D0BCF1000F8AD14FF0010CF0
:1045400089E74FF0000C86E74FF0020C83E7002A62
:1045500014BF0222032286E700380140ECAC0008B9
:104560004FF0E02310B50F499C691A6908689B69F0
:104570000D4902F4803234B993B903464AB90A6846
:104580001044C01A10BD002B08BF03460AB9A3424D
:10459000F5D90A6802440A604FF0E0221269EEE79A
:1045A0000446F3E7380A00202C0A002010220A4BA8
:1045B000002083F823204FF49652084B1A60084BD2
:1045C00041F2BF2218604FF0E0235A6198611A69E6
:1045D00042F007021A61704700ED00E0380A00203F
:1045E0002C0A0020684620F007018D4601B5FFF730
:1045F000B7FF0D4B0D4A186811680844106000227F
:104600004FF496511A600A4A1368C01AB0FBF1F0D1
:1046100001FB0033136001F0E3F8FEF745FFBDE84E
:1046200001408546704700BF2C0A0020340A002054
:10463000300A00202DE9F041324E91B1421C0AD1DE
:104640004FF0E022136923F0010313614FF07F4321
:104650003360BDE8F0813468012807DC4FF00008C2
:104660000BE0431C3468F7D140F6A65040F6A75340
:104670009842A8BF184600F1FF38EFF311851023C8
:1046800083F31288BFF36F8FFFF76AFF4FF0E023C9
:104690000022DFF874C09F69DCF8003018441B4B1F
:1046A0001A601B4B1A68831A29D44FF4965E0EFBCE
:1046B000083303F595531F33B3FBFEF1131A0EFBBA
:1046C0000133B3F5806F38BF4FF48063114A9342D2
:1046D00028BF13464FF0E0223360013B91695361DC
:1046E00000238F42A7EB010738BF3F19384493617D
:1046F000CCF8000085F31188BFF36F8FA9E74FF462
:104700008063E7E7380A0020340A00202C0A0020E2
:10471000300A002080E8FF0038B5EFF31185102340
:1047200083F31288BFF36F8F084B1C68084B1B681C
:10473000E41AFFF715FF85F31188BFF36F8F4FF46D
:1047400096532044B0FBF3F038BD00BF340A00207C
:10475000300A002038B5EFF31185102383F3128857
:10476000BFF36F8F044B1C68FFF7FAFE85F31188C7
:10477000BFF36F8F204438BD340A00200D4A5368C0
:1047800003F00C01082912D10B48C3F38341DB036A
:10479000405C09D55368094AC3F340435043084A73
:1047A000D35CB0FBF3F07047064B584370470348A7
:1047B000704700BF001002407EC6000800127A0059
:1047C0007CC6000800093D00D8B10F4B984216D8AE
:1047D0000E4B984294BF002001200D4A136823F02D
:1047E000070303431360136803F0070398421CBFD9
:1047F000136803F00703C01A18BF01207047022096
:10480000EBE70120704700BF006CDC0200366E0150
:1048100000200240024B03600248C01A4009704762
:10482000B89C0008189E000810B5044645210348AE
:1048300002F00CFE204604F0CCFC00BF8EC600083F
:10484000F7B504460D46EFF31187102383F3128862
:10485000BFF36F8F1A4A0428966898BF194B127CD1
:1048600094BF53F82030184B009245210246174858
:1048700002F0ECFD3DB1EB69C3F308031BB1452128
:10488000134802F0E3FD36B1304604F027FD03463D
:1048900008B1027802B90F4B324645210E4802F0AA
:1048A000D5FD29462046FFF7BFFF87F31188BFF3E8
:1048B0006F8F304603B0BDE8F040FFF715B800BF7A
:1048C0003C0A0020D8AB0008A2C60008B8C6000801
:1048D000E5C60008B0C600080BC7000838B50A4B8B
:1048E00053F82040013053F82050A54200D838BD7D
:1048F000606830B1037EDB0701D404F03EFC08346D
:10490000F3E723689847FAE7ECAB0008012270B59B
:10491000294B032086B01A70FFF7E0FF01F00CF876
:104920000420FFF7DBFF254C254D2646AE4204F15F
:10493000300410D300F012FC204C224EAC4226D39F
:1049400000F020FC04F0E9FE1F4A137B23F0010372
:10495000137306B070BD54F80C3C059354F8103C2A
:10496000049354F8143C039354F8183C029354F8FD
:104970001C3C019354F8203C009354E90A2354E969
:104980000C0100F089F954F8303C5E65CDE7D4E9BC
:104990000A23B3F1FF3F08BFB2F1FF3F05D052EA4F
:1049A0000301206803D100F0A9FC3034C6E731468A
:1049B000183000F085FEF8E78F0A0020709F00088D
:1049C000D09F000801940008C0040020C02370B5E7
:1049D000144E86B003FB0066134B012205930F2390
:1049E000CDE903320023CDE9013314230F4D1049E3
:1049F00003FB0055044601EB00214FF48072304662
:104A00000C4B009500F048F9737B2C7423F00403E1
:104A10007373094B013403EBC423EE606B6006B083
:104A200070BD00BF0004002072C700083C0A0020CF
:104A300098240020AF920008981C0020BFB50020E9
:104A4000FFF74CFF264B83F30888264C002563694B
:104A5000254F43F400736361F02384F82230E57737
:104A600025766576A57684F82050636A43F4E023C2
:104A70006362FEF701FFFEF7F9FF4FF0FF331B48BB
:104A8000A362E36200F0A2F9FCF726FA0120FFF727
:104A900025FF0220164CFFF721FF00F0A7FB154B66
:104AA00015495C61154B4FF4805205930123204654
:104AB000CDE90353CDE901553B46009500F0ECF8F4
:104AC0000646627B204622F00402627304F055FC25
:104AD0002846FFF77BFF3A4631462046FEF7A8FFFF
:104AE0009824002000ED00E00D490008800500201A
:104AF000C00400203C0A002098250020DCAD0008FE
:104B000038B5064C064DAC4201D3002038BD2046D6
:104B1000D4E9011204F0A7FB1434F4E7D800002014
:104B2000EC0000201FB5054CCDE9002302940A4695
:104B3000002104F056FB04B010BD00BF2B7200082A
:104B400070B5EFF31186102383F31288BFF36F8FD4
:104B50000468A0421BD0D4B1D4E900320025136010
:104B60005A60637BC4E9005523F002036373A560B8
:104B700004F1180004F0D1FC2046C4F8BC5004F045
:104B8000FCFB3146BDE87040064800F0A3BAD0E90E
:104B900002329A4218BF0133836086F31188BFF353
:104BA0006F8F70BD900A002013B5EFF311811024B0
:104BB00084F31288BFF36F8F846844B1013C846032
:104BC00081F31188BFF36F8F002002B010BD52EA4D
:104BD000030406D181F31188BFF36F8F6FF00F00CC
:104BE000F3E7CDE900230246014800F051FAECE773
:104BF000900A002010B5044608B9054B9C681F2296
:104C000004F1840004F0BFFD002084F8A30010BD6F
:104C10003C0A00202DE9F84F0C46A1B39AB390F856
:104C20000D90DFF868800846571EB9F1000F25D0B7
:104C30000025DFF85CA0B8F804B019EA0B0F19D012
:104C4000B8F806307E1B9E4228BF1E46D8F80010DA
:104C5000324604F0E8FE2E4439EA0B0904EB060064
:104C60000CD0BD1B012D28BF012551462A4604F05A
:104C7000DAFE354408F108086019DCE70023037008
:104C80002046BDE8F88F0348FBE700BF04AC0008EE
:104C90007AC700083DB000082DE9F04F984685B06E
:104CA00000F15803C0E91633129B00260373042356
:104CB0000F46044643730732119B22F0070A5246FF
:104CC000837301EB0A05C0E906668660C673AA21F4
:104CD0003846DDF838B0DDF84C9004F0CCFE2946BB
:104CE0002046FEF7C1FB109B073020F00700C4F8F8
:104CF000AC00C4E9297A02930F9B2D1ACDE900B3C9
:104D00002A46434639462046FEF776FE0F9BC4E905
:104D10001C8BA367109B666584F86C60E367EFF3F8
:104D20001183102282F31288BFF36F8F104F3A6AFB
:104D30003C62C4F8802083F31188BFF36F8FB9F110
:104D4000000F11D01F22494604F1840004F01BFD1E
:104D500084F8A360BB680BB1D3F8B0302846C4F820
:104D6000B03005B0BDE8F08F84F88490F2E700BF62
:104D70003C0A0020F0B5002587B00595109DDDE9BF
:104D8000127604950F9D044603950E9D02950D9D88
:104D900001950C9D0095FFF77FFFB6F1FF3F08BF1F
:104DA000B7F1FF3F05D056EA070305D1204600F0D2
:104DB000A5FA204607B0F0BD3A46334604F1180084
:104DC000014900F07DFCF4E70194000840F2011372
:104DD00083810023C0E92933C0F8B030014B9860CB
:104DE000704700BF3C0A00206FF00A01094A93682F
:104DF000C3F8BC100849C3F8B8004B6843F08053AF
:104E00004B60002383F31188BFF36F8F9368D3F84F
:104E1000BC0070473C0A002000ED00E070B590F93E
:104E20000D20437B002A36DBD90634D11B4C63F0BE
:104E30007F032246437352F8183FE169934207D13A
:104E4000C0E900210860E06111E09942F8D01B68D8
:104E5000002BF5D090F90E5093F90E60B542F4D0C6
:104E6000AE42F2DD5968C0E9003108605860A569BA
:104E7000954200D005B9E568A3685A7BD20604D1F3
:104E8000DA897F2A01D9AA6932B1AB4202D0284619
:104E900000F02EFB656170BD6361FCE73C0A0020F9
:104EA00038B590F90D200146002A437B04DA03F05F
:104EB0007F03437304F027FA0D4D2A4652F8184F2A
:104EC000AB68944200D004B9EC688B4207D05A7B9F
:104ED000D20604D1DA897F2A01D9A2692AB1A34274
:104EE00002D0204600F004FB23466B6138BD00BFB2
:104EF0003C0A0020B3F1FF3F08BFB2F1FF3F03D0EF
:104F00000249183000F0DCBB704700BF0194000874
:104F100070B590F90D200146002A437B04DA03F0B6
:104F20007F03437304F0EFF91C4C4B7B224663F084
:104F30007F034B7352F8183FE069934207D1C1E9F0
:104F400000200160E16111E09842F8D01B68002B5D
:104F5000F5D091F90E5093F90E60B542F4D0AE42FF
:104F6000F2DD5868C1E9003001605960A569A368A5
:104F7000954200D005B9E5688B4207D05A7BD2062E
:104F800004D1DA897F2A01D9AA692AB1AB4202D0B9
:104F9000284600F0ADFA2B46636170BD3C0A002044
:104FA000F8B5394C0746A268824224D1EFF3058355
:104FB0000BBBEFF31186102383F31288BFF36F8FBF
:104FC000537B03F07F0343F01003537304F09BF90A
:104FD000234653F8185F9D4200D005B9E568A368E1
:104FE0009D4202D0284600F083FA30466561BDE854
:104FF000F840FFF7F9BEEFF31185102383F3128811
:10500000BFF36F8F7B7BD90604D585F31188BFF37F
:105010006F8FF8BDD90943F0100219D17A73A669D0
:105020001A4B9E4200D006B9E668A368B34202D08C
:10503000304600F05DFAA36866619F42E5D1EFF368
:105040000583002BE1D13A7BD2070AD42846CEE76C
:1050500003F07F0343F0100338467B7304F053F9E9
:10506000DDE785F31188BFF36F8F83F31188BFF3FA
:105070006F8F0423184602DFEFF31180102383F3B0
:105080001288BFF36F8FB2E73C0A0020540A002059
:10509000F8B5DDE906670D4B0C46986811460C4AD9
:1050A0001060EFF31182102282F31288BFF36F8F2A
:1050B0009D68284604F039F9284632463B46FFF7FA
:1050C00019FF2046BDE8F840FFF78EBE3C0A0020DD
:1050D000600A002049B9EFF3058030B9054B5A69E1
:1050E0009B689A4201D0FFF77FBE81F31188BFF31E
:1050F0006F8F70473C0A002010B5EFF31184102227
:1051000082F31288BFF36F8F427BD10604D484F3FD
:105110001188BFF36F8F10BD22F010024273FFF7AA
:105120007DFE2146BDE810400148FFF7D3BF00BF18
:10513000900A0020034648B9EFF3058232B9064AC7
:1051400051699268914201D0FFF74EBE83F31188F6
:10515000BFF36F8F704700BF3C0A0020EFF311814F
:10516000102383F31288BFF36F8F054B9A68D37BAC
:10517000013BD37381F31188BFF36F8F704700BF7A
:105180003C0A002070B5EFF31186102383F31288D8
:10519000BFF36F8F144DAB68DA7B0132DA732A46A6
:1051A00052F8184F944200D004B9EC685A7BD206EA
:1051B00004D1DA897F2A01D9A2692AB1A34202D097
:1051C000204600F095F923466B6186F31188BFF302
:1051D0006F8FEFF31180102383F31288BFF36F8F6B
:1051E000BDE87040FFF7A6BF3C0A0020024B03F168
:1051F0001802C3E9062270473C0A002070B5EFF39D
:105200001186102383F31288BFF36F8F1B4CA168A4
:10521000E0690B68814214BF1A46002249680B609E
:105220005960A368E1692AB9154AC3E900210B60F6
:10523000E3610CE093F90E0092F90E50A84218D0E9
:10524000854216DD5168C3E900210B605360A569F2
:105250000B4B9D4200D005B9E568A3689D4202D082
:10526000284600F045F965613046BDE87040FFF71B
:10527000BBBD8A42D8D01268D5E700BF3C0A0020E7
:10528000540A0020F8B550EA010306460C4603D143
:10529000FFF7B4FF0020F8BDEFF31187102383F36D
:1052A0001288BFF36F8F124D124BA8681860FFF77A
:1052B000F7FDA868234632460F49183000F000FA7F
:1052C000AA680446537B384643F004035373FFF740
:1052D0008BFDAB68D3E90A23B3F1004F08BF002A66
:1052E000D8D104F042F9201A20EAE070D3E700BFD9
:1052F0003C0A0020600A00200194000838B50446EA
:10530000EFF31185102383F31288BFF36F8F437B74
:105310005B070FD5183004F000F9637B204623F0BB
:1053200004036373FFF77AFD2946BDE8384004485B
:10533000FFF7D0BE85F31188BFF36F8F38BD00BF74
:10534000900A0020014B9868704700BF3C0A00207B
:105350002DE9F8430446077BEFF31185102383F30F
:105360001288BFF36F8F437B190705D585F311882A
:10537000BFF36F8FBDE8F883D90943F0080260D10D
:105380004273A36813B1204603F0C5FF04F118006F
:1053900004F0C3F8A66D04F15808B04511D04FF0E1
:1053A000000976B1304603F0B6FF06F1180004F0AC
:1053B000B4F83046C6F8BC90FFF730FDA66DB04596
:1053C000EFD1DFF8C480D8F808309C4241D1EFF328
:1053D0000589B9F1000918BF4FF00109D8F8186024
:1053E0002A4A964200D00EB9D8F80C60B34202D0D7
:1053F000304600F07DF82046C8F8146003F0FDF850
:10540000204600F0CDF8B9F1000F02D02048FFF798
:10541000DDFCD8F808309C4231D1EFF3058373BB33
:10542000227BD20718D42846FFF7DEFCFB07A1D564
:10543000002383F31188BFF36F8F0423184602DF24
:1054400098E703F07F0343F00803437303F05BFF27
:1054500097E74FF00009C1E785F31188BFF36F8F1D
:1054600083F31188BFF36F8F0423184602DFEFF335
:105470001180102383F31288BFF36F8FD4E785F375
:105480001188BFF36F8FD1E73C0A0020540A002037
:10549000800500200122044BC01A044BC010584361
:1054A000034B1A54704700BF40060020ABAAAAAABB
:1054B000900A0020C3897F2B12D80A4B1B6863B166
:1054C000094B90F90E201B689A4209DB437BDB06EF
:1054D00006D1064BC31A18BF012303F00100704721
:1054E0000023FAE7A0000020640A00200004002046
:1054F00070B50E4B0E4C1E7C182303FB064405466C
:10550000204604F00AF800220A4B28469A55FFF775
:10551000D1FF48B1084B2046BDE870401A680749E2
:10552000013AD31700F0CCB870BD00BF3C0A002090
:1055300040060020900A0020A0000020955400089A
:1055400038B5EFF31185102383F31288BFF36F8F03
:10555000104B114A9C681068A04206D1FFF7C8FFA3
:1055600085F31188BFF36F8F38BD00211B7C11605C
:105570000A4AD35C002BF3D02046FFF79BFF00289C
:10558000EED0637BDB0602D12046FFF7C1FC20464C
:10559000E4E700BF3C0A0020600A0020900A0020D7
:1055A000EFF31181102383F31288BFF36F8F0C4A3E
:1055B000136A834208D1D3F88030136281F31188D3
:1055C000BFF36F8F70471346002BF7D0D3F88020BE
:1055D0008242F8D1D0F88020C3F88020EEE700BFE7
:1055E0003C0A0020F8B505460E46EFF3118710235C
:1055F00083F31288BFF36F8F064B1C6A24B987F3BD
:105600001188BFF36F8FF8BD20463146A847D4F804
:105610008040F3E73C0A0020F8B506460F46EFF35A
:105620001183102282F31288BFF36F8F15460C4945
:105630000C6A24B983F31188BFF36F8FF8BD83F32D
:105640001188BFF36F8F39462046B047EFF31183BF
:1056500085F31288BFF36F8FD4F88040E9E700BF6D
:105660003C0A0020024B1868984208BF002070478F
:10567000A4000020034B1B680BB9FFF74DB80020B6
:10568000704700BF680A002030B570B10B4B5B68F3
:1056900098420AD0036843B1D3E90421D0E9044514
:1056A000121941EB0501C3E90421D0E9003213606E
:1056B0005A600023C0E9003330BD00BFA4000020C1
:1056C000B3F1FF3F08BFB2F1FF3F2DE9F84F0446A9
:1056D000994615461F467AD08160EFF31188102352
:1056E00083F31288BFF36F8FB9F1000FDFF8E4A0E6
:1056F00020DBFFF7BFFFDAE90027013549F1000998
:105700002D1849EBE07306464FF00109C4E9045334
:10571000AD1843EB0707FFF7A5FF0346DFF8B8E036
:10572000DEF804A0EBB9C4E900EACAF80040CEF8FC
:10573000044028E06FF00103DAE900125B1A4FF031
:10574000FF3161EB02025B1B62EB0902012B72F17C
:105750000001BCBF012300224FF00009C0E9043260
:10576000D9E7D3E9041CD4E904208A4270EB0C0B7E
:1057700024DA891A5A686CEB0000C3E90410C4E902
:10578000003214605C60FFF76DFF84420ED1134B52
:105790001B685BB9B9F1000F02D1FFF76BFF06463A
:1057A000304603F0A3FE0021FEF744FF88F3118882
:1057B000BFF36F8F28463946BDE8F88F521A60EB69
:1057C0000C009A45C4E90420ADD01B68AAE7002567
:1057D0002F46EFE758060020A4000020680A0020AA
:1057E0002DE9F047EFF31185102383F31288BFF3FF
:1057F0006F8FDFF8A0900026C9F800000027FFF7A0
:1058000031FFDFF89480D9F80030D8E900ECD917DF
:1058100050B1D0E90442A34271EB020A1BDAE41A48
:1058200062EB0102C0E90442002413EB0E034CEBCF
:1058300001012046C8E90031C9F8004003F056FED6
:105840002146FEF7F7FE85F31188BFF36F8FBDE8A1
:10585000F047FFF775BE14EB0E024CEBE473C0E9A2
:105860000467C8E90023FFF70FFF85F31188BFF332
:105870006F8F83689847EFF31185102383F31288A5
:10588000BFF36F8FD9F800301B1BC9F80030FFF74A
:10589000E9FEB8E7680A00205806002010B5EFF3CB
:1058A0001184102383F31288BFF36F8FFFF7E2FE9A
:1058B0000346054AD2E90001181841EBE37184F36D
:1058C0001188BFF36F8F10BD580600202DE9F043FB
:1058D0004FF0000985B00546CDF8049000F10C07A3
:1058E000EFF31188102383F31288BFF36F8F83685F
:1058F000594003EA02060A4053400E4901AACDE985
:10590000023903F0D1FD019C3CB12046C4F8BC90A3
:105910000021246E03F051FDF6E7DDE9023223EAAF
:10592000020338464146AB60FFF7D4FB304605B072
:10593000BDE8F083C1960008014801F0E8BC00BF53
:10594000B5C70008F8B54E4A0C46D0E9000100235F
:10595000FAF778FD4FF46161002ABCBF02F5A83266
:1059600002F5C072B2FBF1F301FB13224FF03C01D0
:10597000A360B2FBF1F301FB132222604FF0070298
:1059800000F52F20ACBF00F66C2000F66B206360A2
:10599000C31C93FBF2F2C2EBC2029B1A394D52D5E3
:1059A0000733A361A0F50E33A3F52C7393FBF5F534
:1059B00048F6AC6140F2B457334B40F26D1603FB2E
:1059C0000500B0FBF1F1B0FBF7F30144C91A2F4B0E
:1059D0004FF0050CB0FBF3F3C91A48F69463B1FB22
:1059E000F3F3B1FBF6F2B1FBF7F103445B1A992133
:1059F00006FB123303EB83000230B0FBF1F779436F
:105A00000231B1FBFCF15E1C761A40F2F95188427A
:105A10004FF4C8708CBF6FF00901022100FB05250F
:105A20003944012998BF0135B3F5997F11D3A3F506
:105A30009973E3610023A5F26C752046C4E904154F
:105A4000E6602362F8BD0028A361ABDB90FBF5F5AF
:105A5000AEE7970710D14FF0640C92FBFCF70CFBFC
:105A600017275FB992FBF0F700FB1722B2FA82F218
:105A700052093B331344DCE70022FAE70122F8E73E
:105A800080510100B13A02004FC5FDFFB03A02005B
:105A90000CB430B589B005460C461C22002101A883
:105AA00003F0E9FF02238DF806300E4B05950293B3
:105AB00023462CB1B4F1004F28BF4FF00043013B07
:105AC0001D440DAA0C9901A80695009200F008FA51
:105AD00014B10022059B1A7009B0BDE8304002B035
